{
    "_format": "hh-sol-artifact-1",
    "contractName": "DAT",
    "sourceName": "contracts/OFT/VANAOFT.sol",
    "abi": [
        {
            "inputs": [
                {
                    "internalType": "string",
                    "name": "_name",
                    "type": "string"
                },
                {
                    "internalType": "string",
                    "name": "_symbol",
                    "type": "string"
                },
                {
                    "internalType": "uint8",
                    "name": "_sharedDecimals",
                    "type": "uint8"
                },
                {
                    "internalType": "address",
                    "name": "_layerZeroEndpoint",
                    "type": "address"
                },
                {
                    "internalType": "uint256",
                    "name": "totalSupply",
                    "type": "uint256"
                },
                {
                    "internalType": "address",
                    "name": "_owner",
                    "type": "address"
                }
            ],
            "stateMutability": "nonpayable",
            "type": "constructor"
        },
        {
            "inputs": [],
            "name": "InvalidShortString",
            "type": "error"
        },
        {
            "inputs": [
                {
                    "internalType": "string",
                    "name": "str",
                    "type": "string"
                }
            ],
            "name": "StringTooLong",
            "type": "error"
        },
        {
            "inputs": [],
            "name": "ZeroAddressError",
            "type": "error"
        },
        {
            "anonymous": false,
            "inputs": [
                {
                    "indexed": true,
                    "internalType": "address",
                    "name": "owner",
                    "type": "address"
                },
                {
                    "indexed": true,
                    "internalType": "address",
                    "name": "spender",
                    "type": "address"
                },
                {
                    "indexed": false,
                    "internalType": "uint256",
                    "name": "value",
                    "type": "uint256"
                }
            ],
            "name": "Approval",
            "type": "event"
        },
        {
            "anonymous": false,
            "inputs": [
                {
                    "indexed": true,
                    "internalType": "uint16",
                    "name": "_srcChainId",
                    "type": "uint16"
                },
                {
                    "indexed": false,
                    "internalType": "bytes",
                    "name": "_srcAddress",
                    "type": "bytes"
                },
                {
                    "indexed": false,
                    "internalType": "uint64",
                    "name": "_nonce",
                    "type": "uint64"
                },
                {
                    "indexed": false,
                    "internalType": "bytes32",
                    "name": "_hash",
                    "type": "bytes32"
                }
            ],
            "name": "CallOFTReceivedSuccess",
            "type": "event"
        },
        {
            "anonymous": false,
            "inputs": [
                {
                    "indexed": true,
                    "internalType": "address",
                    "name": "delegator",
                    "type": "address"
                },
                {
                    "indexed": true,
                    "internalType": "address",
                    "name": "fromDelegate",
                    "type": "address"
                },
                {
                    "indexed": true,
                    "internalType": "address",
                    "name": "toDelegate",
                    "type": "address"
                }
            ],
            "name": "DelegateChanged",
            "type": "event"
        },
        {
            "anonymous": false,
            "inputs": [
                {
                    "indexed": true,
                    "internalType": "address",
                    "name": "delegate",
                    "type": "address"
                },
                {
                    "indexed": false,
                    "internalType": "uint256",
                    "name": "previousBalance",
                    "type": "uint256"
                },
                {
                    "indexed": false,
                    "internalType": "uint256",
                    "name": "newBalance",
                    "type": "uint256"
                }
            ],
            "name": "DelegateVotesChanged",
            "type": "event"
        },
        {
            "anonymous": false,
            "inputs": [],
            "name": "EIP712DomainChanged",
            "type": "event"
        },
        {
            "anonymous": false,
            "inputs": [
                {
                    "indexed": false,
                    "internalType": "uint16",
                    "name": "_srcChainId",
                    "type": "uint16"
                },
                {
                    "indexed": false,
                    "internalType": "bytes",
                    "name": "_srcAddress",
                    "type": "bytes"
                },
                {
                    "indexed": false,
                    "internalType": "uint64",
                    "name": "_nonce",
                    "type": "uint64"
                },
                {
                    "indexed": false,
                    "internalType": "bytes",
                    "name": "_payload",
                    "type": "bytes"
                },
                {
                    "indexed": false,
                    "internalType": "bytes",
                    "name": "_reason",
                    "type": "bytes"
                }
            ],
            "name": "MessageFailed",
            "type": "event"
        },
        {
            "anonymous": false,
            "inputs": [
                {
                    "indexed": false,
                    "internalType": "address",
                    "name": "_address",
                    "type": "address"
                }
            ],
            "name": "NonContractAddress",
            "type": "event"
        },
        {
            "anonymous": false,
            "inputs": [
                {
                    "indexed": true,
                    "internalType": "address",
                    "name": "previousOwner",
                    "type": "address"
                },
                {
                    "indexed": true,
                    "internalType": "address",
                    "name": "newOwner",
                    "type": "address"
                }
            ],
            "name": "OwnershipTransferred",
            "type": "event"
        },
        {
            "anonymous": false,
            "inputs": [
                {
                    "indexed": false,
                    "internalType": "address",
                    "name": "account",
                    "type": "address"
                }
            ],
            "name": "Paused",
            "type": "event"
        },
        {
            "anonymous": false,
            "inputs": [
                {
                    "indexed": true,
                    "internalType": "uint16",
                    "name": "_srcChainId",
                    "type": "uint16"
                },
                {
                    "indexed": true,
                    "internalType": "address",
                    "name": "_to",
                    "type": "address"
                },
                {
                    "indexed": false,
                    "internalType": "uint256",
                    "name": "_amount",
                    "type": "uint256"
                }
            ],
            "name": "ReceiveFromChain",
            "type": "event"
        },
        {
            "anonymous": false,
            "inputs": [
                {
                    "indexed": false,
                    "internalType": "uint16",
                    "name": "_srcChainId",
                    "type": "uint16"
                },
                {
                    "indexed": false,
                    "internalType": "bytes",
                    "name": "_srcAddress",
                    "type": "bytes"
                },
                {
                    "indexed": false,
                    "internalType": "uint64",
                    "name": "_nonce",
                    "type": "uint64"
                },
                {
                    "indexed": false,
                    "internalType": "bytes32",
                    "name": "_payloadHash",
                    "type": "bytes32"
                }
            ],
            "name": "RetryMessageSuccess",
            "type": "event"
        },
        {
            "anonymous": false,
            "inputs": [
                {
                    "indexed": true,
                    "internalType": "uint16",
                    "name": "_dstChainId",
                    "type": "uint16"
                },
                {
                    "indexed": true,
                    "internalType": "address",
                    "name": "_from",
                    "type": "address"
                },
                {
                    "indexed": true,
                    "internalType": "bytes32",
                    "name": "_toAddress",
                    "type": "bytes32"
                },
                {
                    "indexed": false,
                    "internalType": "uint256",
                    "name": "_amount",
                    "type": "uint256"
                }
            ],
            "name": "SendToChain",
            "type": "event"
        },
        {
            "anonymous": false,
            "inputs": [
                {
                    "indexed": false,
                    "internalType": "uint16",
                    "name": "_dstChainId",
                    "type": "uint16"
                },
                {
                    "indexed": false,
                    "internalType": "uint16",
                    "name": "_type",
                    "type": "uint16"
                },
                {
                    "indexed": false,
                    "internalType": "uint256",
                    "name": "_minDstGas",
                    "type": "uint256"
                }
            ],
            "name": "SetMinDstGas",
            "type": "event"
        },
        {
            "anonymous": false,
            "inputs": [
                {
                    "indexed": false,
                    "internalType": "address",
                    "name": "precrime",
                    "type": "address"
                }
            ],
            "name": "SetPrecrime",
            "type": "event"
        },
        {
            "anonymous": false,
            "inputs": [
                {
                    "indexed": false,
                    "internalType": "uint16",
                    "name": "_remoteChainId",
                    "type": "uint16"
                },
                {
                    "indexed": false,
                    "internalType": "bytes",
                    "name": "_path",
                    "type": "bytes"
                }
            ],
            "name": "SetTrustedRemote",
            "type": "event"
        },
        {
            "anonymous": false,
            "inputs": [
                {
                    "indexed": false,
                    "internalType": "uint16",
                    "name": "_remoteChainId",
                    "type": "uint16"
                },
                {
                    "indexed": false,
                    "internalType": "bytes",
                    "name": "_remoteAddress",
                    "type": "bytes"
                }
            ],
            "name": "SetTrustedRemoteAddress",
            "type": "event"
        },
        {
            "anonymous": false,
            "inputs": [
                {
                    "indexed": true,
                    "internalType": "address",
                    "name": "from",
                    "type": "address"
                },
                {
                    "indexed": true,
                    "internalType": "address",
                    "name": "to",
                    "type": "address"
                },
                {
                    "indexed": false,
                    "internalType": "uint256",
                    "name": "value",
                    "type": "uint256"
                }
            ],
            "name": "Transfer",
            "type": "event"
        },
        {
            "anonymous": false,
            "inputs": [
                {
                    "indexed": false,
                    "internalType": "address",
                    "name": "account",
                    "type": "address"
                }
            ],
            "name": "Unpaused",
            "type": "event"
        },
        {
            "inputs": [],
            "name": "CLOCK_MODE",
            "outputs": [
                {
                    "internalType": "string",
                    "name": "",
                    "type": "string"
                }
            ],
            "stateMutability": "view",
            "type": "function"
        },
        {
            "inputs": [],
            "name": "DEFAULT_PAYLOAD_SIZE_LIMIT",
            "outputs": [
                {
                    "internalType": "uint256",
                    "name": "",
                    "type": "uint256"
                }
            ],
            "stateMutability": "view",
            "type": "function"
        },
        {
            "inputs": [],
            "name": "DOMAIN_SEPARATOR",
            "outputs": [
                {
                    "internalType": "bytes32",
                    "name": "",
                    "type": "bytes32"
                }
            ],
            "stateMutability": "view",
            "type": "function"
        },
        {
            "inputs": [],
            "name": "NO_EXTRA_GAS",
            "outputs": [
                {
                    "internalType": "uint256",
                    "name": "",
                    "type": "uint256"
                }
            ],
            "stateMutability": "view",
            "type": "function"
        },
        {
            "inputs": [],
            "name": "PT_SEND",
            "outputs": [
                {
                    "internalType": "uint8",
                    "name": "",
                    "type": "uint8"
                }
            ],
            "stateMutability": "view",
            "type": "function"
        },
        {
            "inputs": [],
            "name": "PT_SEND_AND_CALL",
            "outputs": [
                {
                    "internalType": "uint8",
                    "name": "",
                    "type": "uint8"
                }
            ],
            "stateMutability": "view",
            "type": "function"
        },
        {
            "inputs": [
                {
                    "internalType": "address",
                    "name": "owner",
                    "type": "address"
                },
                {
                    "internalType": "address",
                    "name": "spender",
                    "type": "address"
                }
            ],
            "name": "allowance",
            "outputs": [
                {
                    "internalType": "uint256",
                    "name": "",
                    "type": "uint256"
                }
            ],
            "stateMutability": "view",
            "type": "function"
        },
        {
            "inputs": [
                {
                    "internalType": "address",
                    "name": "spender",
                    "type": "address"
                },
                {
                    "internalType": "uint256",
                    "name": "amount",
                    "type": "uint256"
                }
            ],
            "name": "approve",
            "outputs": [
                {
                    "internalType": "bool",
                    "name": "",
                    "type": "bool"
                }
            ],
            "stateMutability": "nonpayable",
            "type": "function"
        },
        {
            "inputs": [
                {
                    "internalType": "address",
                    "name": "account",
                    "type": "address"
                }
            ],
            "name": "balanceOf",
            "outputs": [
                {
                    "internalType": "uint256",
                    "name": "",
                    "type": "uint256"
                }
            ],
            "stateMutability": "view",
            "type": "function"
        },
        {
            "inputs": [
                {
                    "internalType": "uint16",
                    "name": "_srcChainId",
                    "type": "uint16"
                },
                {
                    "internalType": "bytes",
                    "name": "_srcAddress",
                    "type": "bytes"
                },
                {
                    "internalType": "uint64",
                    "name": "_nonce",
                    "type": "uint64"
                },
                {
                    "internalType": "bytes32",
                    "name": "_from",
                    "type": "bytes32"
                },
                {
                    "internalType": "address",
                    "name": "_to",
                    "type": "address"
                },
                {
                    "internalType": "uint256",
                    "name": "_amount",
                    "type": "uint256"
                },
                {
                    "internalType": "bytes",
                    "name": "_payload",
                    "type": "bytes"
                },
                {
                    "internalType": "uint256",
                    "name": "_gasForCall",
                    "type": "uint256"
                }
            ],
            "name": "callOnOFTReceived",
            "outputs": [],
            "stateMutability": "nonpayable",
            "type": "function"
        },
        {
            "inputs": [
                {
                    "internalType": "address",
                    "name": "account",
                    "type": "address"
                },
                {
                    "internalType": "uint32",
                    "name": "pos",
                    "type": "uint32"
                }
            ],
            "name": "checkpoints",
            "outputs": [
                {
                    "components": [
                        {
                            "internalType": "uint32",
                            "name": "fromBlock",
                            "type": "uint32"
                        },
                        {
                            "internalType": "uint224",
                            "name": "votes",
                            "type": "uint224"
                        }
                    ],
                    "internalType": "struct ERC20Votes.Checkpoint",
                    "name": "",
                    "type": "tuple"
                }
            ],
            "stateMutability": "view",
            "type": "function"
        },
        {
            "inputs": [],
            "name": "circulatingSupply",
            "outputs": [
                {
                    "internalType": "uint256",
                    "name": "",
                    "type": "uint256"
                }
            ],
            "stateMutability": "view",
            "type": "function"
        },
        {
            "inputs": [],
            "name": "clock",
            "outputs": [
                {
                    "internalType": "uint48",
                    "name": "",
                    "type": "uint48"
                }
            ],
            "stateMutability": "view",
            "type": "function"
        },
        {
            "inputs": [
                {
                    "internalType": "uint16",
                    "name": "",
                    "type": "uint16"
                },
                {
                    "internalType": "bytes",
                    "name": "",
                    "type": "bytes"
                },
                {
                    "internalType": "uint64",
                    "name": "",
                    "type": "uint64"
                }
            ],
            "name": "creditedPackets",
            "outputs": [
                {
                    "internalType": "bool",
                    "name": "",
                    "type": "bool"
                }
            ],
            "stateMutability": "view",
            "type": "function"
        },
        {
            "inputs": [],
            "name": "decimals",
            "outputs": [
                {
                    "internalType": "uint8",
                    "name": "",
                    "type": "uint8"
                }
            ],
            "stateMutability": "view",
            "type": "function"
        },
        {
            "inputs": [
                {
                    "internalType": "address",
                    "name": "spender",
                    "type": "address"
                },
                {
                    "internalType": "uint256",
                    "name": "subtractedValue",
                    "type": "uint256"
                }
            ],
            "name": "decreaseAllowance",
            "outputs": [
                {
                    "internalType": "bool",
                    "name": "",
                    "type": "bool"
                }
            ],
            "stateMutability": "nonpayable",
            "type": "function"
        },
        {
            "inputs": [
                {
                    "internalType": "address",
                    "name": "delegatee",
                    "type": "address"
                }
            ],
            "name": "delegate",
            "outputs": [],
            "stateMutability": "nonpayable",
            "type": "function"
        },
        {
            "inputs": [
                {
                    "internalType": "address",
                    "name": "delegatee",
                    "type": "address"
                },
                {
                    "internalType": "uint256",
                    "name": "nonce",
                    "type": "uint256"
                },
                {
                    "internalType": "uint256",
                    "name": "expiry",
                    "type": "uint256"
                },
                {
                    "internalType": "uint8",
                    "name": "v",
                    "type": "uint8"
                },
                {
                    "internalType": "bytes32",
                    "name": "r",
                    "type": "bytes32"
                },
                {
                    "internalType": "bytes32",
                    "name": "s",
                    "type": "bytes32"
                }
            ],
            "name": "delegateBySig",
            "outputs": [],
            "stateMutability": "nonpayable",
            "type": "function"
        },
        {
            "inputs": [
                {
                    "internalType": "address",
                    "name": "account",
                    "type": "address"
                }
            ],
            "name": "delegates",
            "outputs": [
                {
                    "internalType": "address",
                    "name": "",
                    "type": "address"
                }
            ],
            "stateMutability": "view",
            "type": "function"
        },
        {
            "inputs": [],
            "name": "eip712Domain",
            "outputs": [
                {
                    "internalType": "bytes1",
                    "name": "fields",
                    "type": "bytes1"
                },
                {
                    "internalType": "string",
                    "name": "name",
                    "type": "string"
                },
                {
                    "internalType": "string",
                    "name": "version",
                    "type": "string"
                },
                {
                    "internalType": "uint256",
                    "name": "chainId",
                    "type": "uint256"
                },
                {
                    "internalType": "address",
                    "name": "verifyingContract",
                    "type": "address"
                },
                {
                    "internalType": "bytes32",
                    "name": "salt",
                    "type": "bytes32"
                },
                {
                    "internalType": "uint256[]",
                    "name": "extensions",
                    "type": "uint256[]"
                }
            ],
            "stateMutability": "view",
            "type": "function"
        },
        {
            "inputs": [
                {
                    "internalType": "uint16",
                    "name": "_dstChainId",
                    "type": "uint16"
                },
                {
                    "internalType": "bytes32",
                    "name": "_toAddress",
                    "type": "bytes32"
                },
                {
                    "internalType": "uint256",
                    "name": "_amount",
                    "type": "uint256"
                },
                {
                    "internalType": "bytes",
                    "name": "_payload",
                    "type": "bytes"
                },
                {
                    "internalType": "uint64",
                    "name": "_dstGasForCall",
                    "type": "uint64"
                },
                {
                    "internalType": "bool",
                    "name": "_useZro",
                    "type": "bool"
                },
                {
                    "internalType": "bytes",
                    "name": "_adapterParams",
                    "type": "bytes"
                }
            ],
            "name": "estimateSendAndCallFee",
            "outputs": [
                {
                    "internalType": "uint256",
                    "name": "nativeFee",
                    "type": "uint256"
                },
                {
                    "internalType": "uint256",
                    "name": "zroFee",
                    "type": "uint256"
                }
            ],
            "stateMutability": "view",
            "type": "function"
        },
        {
            "inputs": [
                {
                    "internalType": "uint16",
                    "name": "_dstChainId",
                    "type": "uint16"
                },
                {
                    "internalType": "bytes32",
                    "name": "_toAddress",
                    "type": "bytes32"
                },
                {
                    "internalType": "uint256",
                    "name": "_amount",
                    "type": "uint256"
                },
                {
                    "internalType": "bool",
                    "name": "_useZro",
                    "type": "bool"
                },
                {
                    "internalType": "bytes",
                    "name": "_adapterParams",
                    "type": "bytes"
                }
            ],
            "name": "estimateSendFee",
            "outputs": [
                {
                    "internalType": "uint256",
                    "name": "nativeFee",
                    "type": "uint256"
                },
                {
                    "internalType": "uint256",
                    "name": "zroFee",
                    "type": "uint256"
                }
            ],
            "stateMutability": "view",
            "type": "function"
        },
        {
            "inputs": [
                {
                    "internalType": "uint16",
                    "name": "",
                    "type": "uint16"
                },
                {
                    "internalType": "bytes",
                    "name": "",
                    "type": "bytes"
                },
                {
                    "internalType": "uint64",
                    "name": "",
                    "type": "uint64"
                }
            ],
            "name": "failedMessages",
            "outputs": [
                {
                    "internalType": "bytes32",
                    "name": "",
                    "type": "bytes32"
                }
            ],
            "stateMutability": "view",
            "type": "function"
        },
        {
            "inputs": [
                {
                    "internalType": "uint16",
                    "name": "_srcChainId",
                    "type": "uint16"
                },
                {
                    "internalType": "bytes",
                    "name": "_srcAddress",
                    "type": "bytes"
                }
            ],
            "name": "forceResumeReceive",
            "outputs": [],
            "stateMutability": "nonpayable",
            "type": "function"
        },
        {
            "inputs": [
                {
                    "internalType": "uint16",
                    "name": "_version",
                    "type": "uint16"
                },
                {
                    "internalType": "uint16",
                    "name": "_chainId",
                    "type": "uint16"
                },
                {
                    "internalType": "address",
                    "name": "",
                    "type": "address"
                },
                {
                    "internalType": "uint256",
                    "name": "_configType",
                    "type": "uint256"
                }
            ],
            "name": "getConfig",
            "outputs": [
                {
                    "internalType": "bytes",
                    "name": "",
                    "type": "bytes"
                }
            ],
            "stateMutability": "view",
            "type": "function"
        },
        {
            "inputs": [
                {
                    "internalType": "uint256",
                    "name": "timepoint",
                    "type": "uint256"
                }
            ],
            "name": "getPastTotalSupply",
            "outputs": [
                {
                    "internalType": "uint256",
                    "name": "",
                    "type": "uint256"
                }
            ],
            "stateMutability": "view",
            "type": "function"
        },
        {
            "inputs": [
                {
                    "internalType": "address",
                    "name": "account",
                    "type": "address"
                },
                {
                    "internalType": "uint256",
                    "name": "timepoint",
                    "type": "uint256"
                }
            ],
            "name": "getPastVotes",
            "outputs": [
                {
                    "internalType": "uint256",
                    "name": "",
                    "type": "uint256"
                }
            ],
            "stateMutability": "view",
            "type": "function"
        },
        {
            "inputs": [
                {
                    "internalType": "uint16",
                    "name": "_remoteChainId",
                    "type": "uint16"
                }
            ],
            "name": "getTrustedRemoteAddress",
            "outputs": [
                {
                    "internalType": "bytes",
                    "name": "",
                    "type": "bytes"
                }
            ],
            "stateMutability": "view",
            "type": "function"
        },
        {
            "inputs": [
                {
                    "internalType": "address",
                    "name": "account",
                    "type": "address"
                }
            ],
            "name": "getVotes",
            "outputs": [
                {
                    "internalType": "uint256",
                    "name": "",
                    "type": "uint256"
                }
            ],
            "stateMutability": "view",
            "type": "function"
        },
        {
            "inputs": [
                {
                    "internalType": "address",
                    "name": "spender",
                    "type": "address"
                },
                {
                    "internalType": "uint256",
                    "name": "addedValue",
                    "type": "uint256"
                }
            ],
            "name": "increaseAllowance",
            "outputs": [
                {
                    "internalType": "bool",
                    "name": "",
                    "type": "bool"
                }
            ],
            "stateMutability": "nonpayable",
            "type": "function"
        },
        {
            "inputs": [
                {
                    "internalType": "uint16",
                    "name": "_srcChainId",
                    "type": "uint16"
                },
                {
                    "internalType": "bytes",
                    "name": "_srcAddress",
                    "type": "bytes"
                }
            ],
            "name": "isTrustedRemote",
            "outputs": [
                {
                    "internalType": "bool",
                    "name": "",
                    "type": "bool"
                }
            ],
            "stateMutability": "view",
            "type": "function"
        },
        {
            "inputs": [],
            "name": "lzEndpoint",
            "outputs": [
                {
                    "internalType": "contract ILayerZeroEndpoint",
                    "name": "",
                    "type": "address"
                }
            ],
            "stateMutability": "view",
            "type": "function"
        },
        {
            "inputs": [
                {
                    "internalType": "uint16",
                    "name": "_srcChainId",
                    "type": "uint16"
                },
                {
                    "internalType": "bytes",
                    "name": "_srcAddress",
                    "type": "bytes"
                },
                {
                    "internalType": "uint64",
                    "name": "_nonce",
                    "type": "uint64"
                },
                {
                    "internalType": "bytes",
                    "name": "_payload",
                    "type": "bytes"
                }
            ],
            "name": "lzReceive",
            "outputs": [],
            "stateMutability": "nonpayable",
            "type": "function"
        },
        {
            "inputs": [
                {
                    "internalType": "uint16",
                    "name": "",
                    "type": "uint16"
                },
                {
                    "internalType": "uint16",
                    "name": "",
                    "type": "uint16"
                }
            ],
            "name": "minDstGasLookup",
            "outputs": [
                {
                    "internalType": "uint256",
                    "name": "",
                    "type": "uint256"
                }
            ],
            "stateMutability": "view",
            "type": "function"
        },
        {
            "inputs": [],
            "name": "name",
            "outputs": [
                {
                    "internalType": "string",
                    "name": "",
                    "type": "string"
                }
            ],
            "stateMutability": "view",
            "type": "function"
        },
        {
            "inputs": [
                {
                    "internalType": "uint16",
                    "name": "_srcChainId",
                    "type": "uint16"
                },
                {
                    "internalType": "bytes",
                    "name": "_srcAddress",
                    "type": "bytes"
                },
                {
                    "internalType": "uint64",
                    "name": "_nonce",
                    "type": "uint64"
                },
                {
                    "internalType": "bytes",
                    "name": "_payload",
                    "type": "bytes"
                }
            ],
            "name": "nonblockingLzReceive",
            "outputs": [],
            "stateMutability": "nonpayable",
            "type": "function"
        },
        {
            "inputs": [
                {
                    "internalType": "address",
                    "name": "owner",
                    "type": "address"
                }
            ],
            "name": "nonces",
            "outputs": [
                {
                    "internalType": "uint256",
                    "name": "",
                    "type": "uint256"
                }
            ],
            "stateMutability": "view",
            "type": "function"
        },
        {
            "inputs": [
                {
                    "internalType": "address",
                    "name": "account",
                    "type": "address"
                }
            ],
            "name": "numCheckpoints",
            "outputs": [
                {
                    "internalType": "uint32",
                    "name": "",
                    "type": "uint32"
                }
            ],
            "stateMutability": "view",
            "type": "function"
        },
        {
            "inputs": [],
            "name": "owner",
            "outputs": [
                {
                    "internalType": "address",
                    "name": "",
                    "type": "address"
                }
            ],
            "stateMutability": "view",
            "type": "function"
        },
        {
            "inputs": [],
            "name": "pause",
            "outputs": [],
            "stateMutability": "nonpayable",
            "type": "function"
        },
        {
            "inputs": [],
            "name": "paused",
            "outputs": [
                {
                    "internalType": "bool",
                    "name": "",
                    "type": "bool"
                }
            ],
            "stateMutability": "view",
            "type": "function"
        },
        {
            "inputs": [
                {
                    "internalType": "uint16",
                    "name": "",
                    "type": "uint16"
                }
            ],
            "name": "payloadSizeLimitLookup",
            "outputs": [
                {
                    "internalType": "uint256",
                    "name": "",
                    "type": "uint256"
                }
            ],
            "stateMutability": "view",
            "type": "function"
        },
        {
            "inputs": [
                {
                    "internalType": "address",
                    "name": "owner",
                    "type": "address"
                },
                {
                    "internalType": "address",
                    "name": "spender",
                    "type": "address"
                },
                {
                    "internalType": "uint256",
                    "name": "value",
                    "type": "uint256"
                },
                {
                    "internalType": "uint256",
                    "name": "deadline",
                    "type": "uint256"
                },
                {
                    "internalType": "uint8",
                    "name": "v",
                    "type": "uint8"
                },
                {
                    "internalType": "bytes32",
                    "name": "r",
                    "type": "bytes32"
                },
                {
                    "internalType": "bytes32",
                    "name": "s",
                    "type": "bytes32"
                }
            ],
            "name": "permit",
            "outputs": [],
            "stateMutability": "nonpayable",
            "type": "function"
        },
        {
            "inputs": [],
            "name": "precrime",
            "outputs": [
                {
                    "internalType": "address",
                    "name": "",
                    "type": "address"
                }
            ],
            "stateMutability": "view",
            "type": "function"
        },
        {
            "inputs": [],
            "name": "renounceOwnership",
            "outputs": [],
            "stateMutability": "nonpayable",
            "type": "function"
        },
        {
            "inputs": [
                {
                    "internalType": "uint16",
                    "name": "_srcChainId",
                    "type": "uint16"
                },
                {
                    "internalType": "bytes",
                    "name": "_srcAddress",
                    "type": "bytes"
                },
                {
                    "internalType": "uint64",
                    "name": "_nonce",
                    "type": "uint64"
                },
                {
                    "internalType": "bytes",
                    "name": "_payload",
                    "type": "bytes"
                }
            ],
            "name": "retryMessage",
            "outputs": [],
            "stateMutability": "payable",
            "type": "function"
        },
        {
            "inputs": [
                {
                    "internalType": "address",
                    "name": "_from",
                    "type": "address"
                },
                {
                    "internalType": "uint16",
                    "name": "_dstChainId",
                    "type": "uint16"
                },
                {
                    "internalType": "bytes32",
                    "name": "_toAddress",
                    "type": "bytes32"
                },
                {
                    "internalType": "uint256",
                    "name": "_amount",
                    "type": "uint256"
                },
                {
                    "internalType": "bytes",
                    "name": "_payload",
                    "type": "bytes"
                },
                {
                    "internalType": "uint64",
                    "name": "_dstGasForCall",
                    "type": "uint64"
                },
                {
                    "components": [
                        {
                            "internalType": "address payable",
                            "name": "refundAddress",
                            "type": "address"
                        },
                        {
                            "internalType": "address",
                            "name": "zroPaymentAddress",
                            "type": "address"
                        },
                        {
                            "internalType": "bytes",
                            "name": "adapterParams",
                            "type": "bytes"
                        }
                    ],
                    "internalType": "struct ICommonOFT.LzCallParams",
                    "name": "_callParams",
                    "type": "tuple"
                }
            ],
            "name": "sendAndCall",
            "outputs": [],
            "stateMutability": "payable",
            "type": "function"
        },
        {
            "inputs": [
                {
                    "internalType": "address",
                    "name": "_from",
                    "type": "address"
                },
                {
                    "internalType": "uint16",
                    "name": "_dstChainId",
                    "type": "uint16"
                },
                {
                    "internalType": "bytes32",
                    "name": "_toAddress",
                    "type": "bytes32"
                },
                {
                    "internalType": "uint256",
                    "name": "_amount",
                    "type": "uint256"
                },
                {
                    "components": [
                        {
                            "internalType": "address payable",
                            "name": "refundAddress",
                            "type": "address"
                        },
                        {
                            "internalType": "address",
                            "name": "zroPaymentAddress",
                            "type": "address"
                        },
                        {
                            "internalType": "bytes",
                            "name": "adapterParams",
                            "type": "bytes"
                        }
                    ],
                    "internalType": "struct ICommonOFT.LzCallParams",
                    "name": "_callParams",
                    "type": "tuple"
                }
            ],
            "name": "sendFrom",
            "outputs": [],
            "stateMutability": "payable",
            "type": "function"
        },
        {
            "inputs": [
                {
                    "internalType": "uint16",
                    "name": "_version",
                    "type": "uint16"
                },
                {
                    "internalType": "uint16",
                    "name": "_chainId",
                    "type": "uint16"
                },
                {
                    "internalType": "uint256",
                    "name": "_configType",
                    "type": "uint256"
                },
                {
                    "internalType": "bytes",
                    "name": "_config",
                    "type": "bytes"
                }
            ],
            "name": "setConfig",
            "outputs": [],
            "stateMutability": "nonpayable",
            "type": "function"
        },
        {
            "inputs": [
                {
                    "internalType": "uint16",
                    "name": "_dstChainId",
                    "type": "uint16"
                },
                {
                    "internalType": "uint16",
                    "name": "_packetType",
                    "type": "uint16"
                },
                {
                    "internalType": "uint256",
                    "name": "_minGas",
                    "type": "uint256"
                }
            ],
            "name": "setMinDstGas",
            "outputs": [],
            "stateMutability": "nonpayable",
            "type": "function"
        },
        {
            "inputs": [
                {
                    "internalType": "uint16",
                    "name": "_dstChainId",
                    "type": "uint16"
                },
                {
                    "internalType": "uint256",
                    "name": "_size",
                    "type": "uint256"
                }
            ],
            "name": "setPayloadSizeLimit",
            "outputs": [],
            "stateMutability": "nonpayable",
            "type": "function"
        },
        {
            "inputs": [
                {
                    "internalType": "address",
                    "name": "_precrime",
                    "type": "address"
                }
            ],
            "name": "setPrecrime",
            "outputs": [],
            "stateMutability": "nonpayable",
            "type": "function"
        },
        {
            "inputs": [
                {
                    "internalType": "uint16",
                    "name": "_version",
                    "type": "uint16"
                }
            ],
            "name": "setReceiveVersion",
            "outputs": [],
            "stateMutability": "nonpayable",
            "type": "function"
        },
        {
            "inputs": [
                {
                    "internalType": "uint16",
                    "name": "_version",
                    "type": "uint16"
                }
            ],
            "name": "setSendVersion",
            "outputs": [],
            "stateMutability": "nonpayable",
            "type": "function"
        },
        {
            "inputs": [
                {
                    "internalType": "uint16",
                    "name": "_remoteChainId",
                    "type": "uint16"
                },
                {
                    "internalType": "bytes",
                    "name": "_path",
                    "type": "bytes"
                }
            ],
            "name": "setTrustedRemote",
            "outputs": [],
            "stateMutability": "nonpayable",
            "type": "function"
        },
        {
            "inputs": [
                {
                    "internalType": "uint16",
                    "name": "_remoteChainId",
                    "type": "uint16"
                },
                {
                    "internalType": "bytes",
                    "name": "_remoteAddress",
                    "type": "bytes"
                }
            ],
            "name": "setTrustedRemoteAddress",
            "outputs": [],
            "stateMutability": "nonpayable",
            "type": "function"
        },
        {
            "inputs": [],
            "name": "sharedDecimals",
            "outputs": [
                {
                    "internalType": "uint8",
                    "name": "",
                    "type": "uint8"
                }
            ],
            "stateMutability": "view",
            "type": "function"
        },
        {
            "inputs": [
                {
                    "internalType": "bytes4",
                    "name": "interfaceId",
                    "type": "bytes4"
                }
            ],
            "name": "supportsInterface",
            "outputs": [
                {
                    "internalType": "bool",
                    "name": "",
                    "type": "bool"
                }
            ],
            "stateMutability": "view",
            "type": "function"
        },
        {
            "inputs": [],
            "name": "symbol",
            "outputs": [
                {
                    "internalType": "string",
                    "name": "",
                    "type": "string"
                }
            ],
            "stateMutability": "view",
            "type": "function"
        },
        {
            "inputs": [],
            "name": "token",
            "outputs": [
                {
                    "internalType": "address",
                    "name": "",
                    "type": "address"
                }
            ],
            "stateMutability": "view",
            "type": "function"
        },
        {
            "inputs": [],
            "name": "totalSupply",
            "outputs": [
                {
                    "internalType": "uint256",
                    "name": "",
                    "type": "uint256"
                }
            ],
            "stateMutability": "view",
            "type": "function"
        },
        {
            "inputs": [
                {
                    "internalType": "address",
                    "name": "to",
                    "type": "address"
                },
                {
                    "internalType": "uint256",
                    "name": "amount",
                    "type": "uint256"
                }
            ],
            "name": "transfer",
            "outputs": [
                {
                    "internalType": "bool",
                    "name": "",
                    "type": "bool"
                }
            ],
            "stateMutability": "nonpayable",
            "type": "function"
        },
        {
            "inputs": [
                {
                    "internalType": "address",
                    "name": "from",
                    "type": "address"
                },
                {
                    "internalType": "address",
                    "name": "to",
                    "type": "address"
                },
                {
                    "internalType": "uint256",
                    "name": "amount",
                    "type": "uint256"
                }
            ],
            "name": "transferFrom",
            "outputs": [
                {
                    "internalType": "bool",
                    "name": "",
                    "type": "bool"
                }
            ],
            "stateMutability": "nonpayable",
            "type": "function"
        },
        {
            "inputs": [
                {
                    "internalType": "address",
                    "name": "newOwner",
                    "type": "address"
                }
            ],
            "name": "transferOwnership",
            "outputs": [],
            "stateMutability": "nonpayable",
            "type": "function"
        },
        {
            "inputs": [
                {
                    "internalType": "uint16",
                    "name": "",
                    "type": "uint16"
                }
            ],
            "name": "trustedRemoteLookup",
            "outputs": [
                {
                    "internalType": "bytes",
                    "name": "",
                    "type": "bytes"
                }
            ],
            "stateMutability": "view",
            "type": "function"
        },
        {
            "inputs": [],
            "name": "unpause",
            "outputs": [],
            "stateMutability": "nonpayable",
            "type": "function"
        }
    ],
    "bytecode": "0x6101c06040523480156200001257600080fd5b5060405162006c2b38038062006c2b833981016040819052620000359162000b5d565b8580604051806040016040528060018152602001603160f81b8152508888888883838383818180806200007762000071620002b760201b60201c565b620002bb565b6001600160a01b0316608052505060ff1660a05250600a90506200009c838262000c9c565b50600b620000ab828262000c9c565b5050506000620000c06200030b60201b60201c565b90508060ff168360ff1611156200012e5760405162461bcd60e51b815260206004820152602760248201527f4f46543a20736861726564446563696d616c73206d757374206265203c3d20646044820152666563696d616c7360c81b60648201526084015b60405180910390fd5b6200013a838262000d7e565b6200014790600a62000e97565b60c052506200015f9350859250600c91505062000310565b610180526200017081600d62000310565b6101a052815160208084019190912061014052815190820120610160524661010052620002016101405161016051604080517f8b73c3c69bb8fe3d512ecc4cf759cc79239f7b179b0ffacaa9a75d522b39400f60208201529081019290925260608201524660808201523060a082015260009060c00160405160208183030381529060405280519060200120905090565b60e05250503061012052506013805460ff1916905560016014556001600160a01b0383166200024357604051633efa09af60e01b815260040160405180910390fd5b6001600160a01b0381166200026b57604051633efa09af60e01b815260040160405180910390fd5b466121058114806200027f57508062014a34145b806200028d57508062013882145b156200029f576200029f828462000349565b620002aa8262000359565b5050505050505062000f2e565b3390565b600080546001600160a01b038381166001600160a01b0319831681178455604051919092169283917f8be0079c531659141344cd1fd0a4f28419497f9722a3daafe3b4186f6b6457e09190a35050565b601290565b600060208351101562000330576200032883620003d8565b905062000343565b816200033d848262000c9c565b5060ff90505b92915050565b6200035582826200041b565b5050565b62000363620004c3565b6001600160a01b038116620003ca5760405162461bcd60e51b815260206004820152602660248201527f4f776e61626c653a206e6577206f776e657220697320746865207a65726f206160448201526564647265737360d01b606482015260840162000125565b620003d581620002bb565b50565b600080829050601f8151111562000406578260405163305a27a960e01b815260040162000125919062000ea8565b8051620004138262000edd565b179392505050565b62000427828262000521565b6001600160e01b036200043b620005f08216565b1115620004a45760405162461bcd60e51b815260206004820152603060248201527f4552433230566f7465733a20746f74616c20737570706c79207269736b73206f60448201526f766572666c6f77696e6720766f74657360801b606482015260840162000125565b620004bd601262002501620005f660201b17836200060b565b50505050565b6000546001600160a01b031633146200051f5760405162461bcd60e51b815260206004820181905260248201527f4f776e61626c653a2063616c6c6572206973206e6f7420746865206f776e6572604482015260640162000125565b565b6001600160a01b038216620005795760405162461bcd60e51b815260206004820152601f60248201527f45524332303a206d696e7420746f20746865207a65726f206164647265737300604482015260640162000125565b80600960008282546200058d919062000f02565b90915550506001600160a01b0382166000818152600760209081526040808320805486019055518481527fddf252ad1be2c89b69c2b068fc378daa952ba7f163c4a11628f55a4df523b3ef910160405180910390a3620003556000838362000798565b60095490565b600062000604828462000f02565b9392505050565b825460009081908181156200065a5760008781526020902082016000190160408051808201909152905463ffffffff8116825264010000000090046001600160e01b031660208201526200066f565b60408051808201909152600080825260208201525b905080602001516001600160e01b031693506200068d84868860201c565b9250600082118015620006ba5750620006a5620007a5565b65ffffffffffff16816000015163ffffffff16145b156200070357620006cb83620007b7565b60008881526020902083016000190180546001600160e01b03929092166401000000000263ffffffff90921691909117905562000789565b8660405180604001604052806200073162000723620007a560201b60201c565b65ffffffffffff1662000826565b63ffffffff1681526020016200074786620007b7565b6001600160e01b0390811690915282546001810184556000938452602093849020835194909301519091166401000000000263ffffffff909316929092179101555b5050935093915050565b505050565b620007938383836200088d565b6000620007b243620008c1565b905090565b60006001600160e01b03821115620008225760405162461bcd60e51b815260206004820152602760248201527f53616665436173743a2076616c756520646f65736e27742066697420696e20326044820152663234206269747360c81b606482015260840162000125565b5090565b600063ffffffff821115620008225760405162461bcd60e51b815260206004820152602660248201527f53616665436173743a2076616c756520646f65736e27742066697420696e203360448201526532206269747360d01b606482015260840162000125565b6001600160a01b0383811660009081526010602052604080822054858416835291205462000793929182169116836200092a565b600065ffffffffffff821115620008225760405162461bcd60e51b815260206004820152602660248201527f53616665436173743a2076616c756520646f65736e27742066697420696e203460448201526538206269747360d01b606482015260840162000125565b816001600160a01b0316836001600160a01b0316141580156200094d5750600081115b1562000793576001600160a01b03831615620009da576001600160a01b03831660009081526011602090815260408220829162000997919062000a65901b6200250d17856200060b565b91509150846001600160a01b031660008051602062006c0b8339815191528383604051620009cf929190918252602082015260400190565b60405180910390a250505b6001600160a01b0382161562000793576001600160a01b03821660009081526011602090815260408220829162000a1e9190620005f6901b6200250117856200060b565b91509150836001600160a01b031660008051602062006c0b833981519152838360405162000a56929190918252602082015260400190565b60405180910390a25050505050565b600062000604828462000f18565b634e487b7160e01b600052604160045260246000fd5b60005b8381101562000aa657818101518382015260200162000a8c565b50506000910152565b600082601f83011262000ac157600080fd5b81516001600160401b038082111562000ade5762000ade62000a73565b604051601f8301601f19908116603f0116810190828211818310171562000b095762000b0962000a73565b8160405283815286602085880101111562000b2357600080fd5b62000b3684602083016020890162000a89565b9695505050505050565b80516001600160a01b038116811462000b5857600080fd5b919050565b60008060008060008060c0878903121562000b7757600080fd5b86516001600160401b038082111562000b8f57600080fd5b62000b9d8a838b0162000aaf565b9750602089015191508082111562000bb457600080fd5b5062000bc389828a0162000aaf565b955050604087015160ff8116811462000bdb57600080fd5b935062000beb6060880162000b40565b92506080870151915062000c0260a0880162000b40565b90509295509295509295565b600181811c9082168062000c2357607f821691505b60208210810362000c4457634e487b7160e01b600052602260045260246000fd5b50919050565b601f8211156200079357600081815260208120601f850160051c8101602086101562000c735750805b601f850160051c820191505b8181101562000c945782815560010162000c7f565b505050505050565b81516001600160401b0381111562000cb85762000cb862000a73565b62000cd08162000cc9845462000c0e565b8462000c4a565b602080601f83116001811462000d08576000841562000cef5750858301515b600019600386901b1c1916600185901b17855562000c94565b600085815260208120601f198616915b8281101562000d395788860151825594840194600190910190840162000d18565b508582101562000d585787850151600019600388901b60f8161c191681555b5050505050600190811b01905550565b634e487b7160e01b600052601160045260246000fd5b60ff828116828216039081111562000343576200034362000d68565b600181815b8085111562000ddb57816000190482111562000dbf5762000dbf62000d68565b8085161562000dcd57918102915b93841c939080029062000d9f565b509250929050565b60008262000df45750600162000343565b8162000e035750600062000343565b816001811462000e1c576002811462000e275762000e47565b600191505062000343565b60ff84111562000e3b5762000e3b62000d68565b50506001821b62000343565b5060208310610133831016604e8410600b841016171562000e6c575081810a62000343565b62000e78838362000d9a565b806000190482111562000e8f5762000e8f62000d68565b029392505050565b60006200060460ff84168362000de3565b602081526000825180602084015262000ec981604085016020870162000a89565b601f01601f19169190910160400192915050565b8051602080830151919081101562000c445760001960209190910360031b1b16919050565b8082018082111562000343576200034362000d68565b8181038181111562000343576200034362000d68565b60805160a05160c05160e05161010051610120516101405161016051610180516101a051615c1462000ff760003960006117a20152600061177701526000612a15015260006129ed01526000612948015260006129720152600061299c0152600081816135f901528181613cd7015261444e015260006108af015260008181610ae101528181610ce101528181610ff9015281816110b90152818161132e01528181611d580152818161248101528181612ace0152818161335b0152613e6a0152615c146000f3fe6080604052600436106103d85760003560e01c80638456cb59116101fd578063a9059cbb11610118578063dd62ed3e116100ab578063eb8d72b71161007a578063eb8d72b714610c21578063f1127ed814610c41578063f2fde38b14610c8b578063f5ecbdbc14610cab578063fc0c546a14610ccb57600080fd5b8063dd62ed3e14610bac578063df2a5b3b14610bcc578063e6a20ae614610bec578063eaffd49a14610c0157600080fd5b8063c4461834116100e7578063c446183414610b43578063cbed8b9c14610b59578063d1deba1f14610b79578063d505accf14610b8c57600080fd5b8063a9059cbb14610aaf578063b353aaa714610acf578063baf3292d14610b03578063c3cda52014610b2357600080fd5b8063950c8a74116101905780639f38369a1161015f5780639f38369a14610a2f578063a457c2d714610a4f578063a4c51df514610a6f578063a6c3d16514610a8f57600080fd5b8063950c8a741461098857806395d89b41146109a85780639ab24eb0146109bd5780639bdb9812146109dd57600080fd5b80638da5cb5b116101cc5780638da5cb5b146109095780638e539e8c1461092757806391ddadf4146109475780639358928b1461097357600080fd5b80638456cb591461086057806384b0196e14610875578063857749b01461089d5780638cfd8f5c146108d157600080fd5b80633f4ba83a116102f85780635c975abb1161028b57806370a082311161025a57806370a08231146107c2578063715018a6146107f85780637533d7881461080d57806376203b481461082d5780637ecebe001461084057600080fd5b80635c975abb1461074257806366ad5c8a1461075a578063695ef6bf1461077a5780636fcfff451461078d57600080fd5b80634c42899a116102c75780634c42899a1461066d578063587cde1e146106825780635b8c41e6146106d35780635c19a95c1461072257600080fd5b80633f4ba83a1461060e57806342d65a8d1461062357806344770515146106435780634bf5d7e91461065857600080fd5b806323b872dd11610370578063395093511161033f57806339509351146105815780633a46b1a8146105a15780633d8b38f6146105c15780633f1f4fa4146105e157600080fd5b806323b872dd146104f5578063313ce567146105155780633644e51514610537578063365260b41461054c57600080fd5b8063095ea7b3116103ac578063095ea7b3146104765780630df374831461049657806310ddb137146104b657806318160ddd146104d657600080fd5b80621d3567146103dd57806301ffc9a7146103ff57806306fdde031461043457806307e0db1714610456575b600080fd5b3480156103e957600080fd5b506103fd6103f8366004614af8565b610cde565b005b34801561040b57600080fd5b5061041f61041a366004614b8b565b610f0f565b60405190151581526020015b60405180910390f35b34801561044057600080fd5b50610449610f46565b60405161042b9190614c05565b34801561046257600080fd5b506103fd610471366004614c18565b610fd8565b34801561048257600080fd5b5061041f610491366004614c48565b611061565b3480156104a257600080fd5b506103fd6104b1366004614c74565b611079565b3480156104c257600080fd5b506103fd6104d1366004614c18565b611098565b3480156104e257600080fd5b506009545b60405190815260200161042b565b34801561050157600080fd5b5061041f610510366004614c90565b6110f0565b34801561052157600080fd5b5060125b60405160ff909116815260200161042b565b34801561054357600080fd5b506104e7611114565b34801561055857600080fd5b5061056c610567366004614ce1565b611123565b6040805192835260208301919091520161042b565b34801561058d57600080fd5b5061041f61059c366004614c48565b611178565b3480156105ad57600080fd5b506104e76105bc366004614c48565b61119a565b3480156105cd57600080fd5b5061041f6105dc366004614d46565b61121f565b3480156105ed57600080fd5b506104e76105fc366004614c18565b60036020526000908152604090205481565b34801561061a57600080fd5b506103fd6112eb565b34801561062f57600080fd5b506103fd61063e366004614d46565b61130f565b34801561064f57600080fd5b506104e7600081565b34801561066457600080fd5b50610449611395565b34801561067957600080fd5b50610525600081565b34801561068e57600080fd5b506106bb61069d366004614d98565b6001600160a01b039081166000908152601060205260409020541690565b6040516001600160a01b03909116815260200161042b565b3480156106df57600080fd5b506104e76106ee366004614e22565b6005602090815260009384526040808520845180860184018051928152908401958401959095209452929052825290205481565b34801561072e57600080fd5b506103fd61073d366004614d98565b61142d565b34801561074e57600080fd5b5060135460ff1661041f565b34801561076657600080fd5b506103fd610775366004614af8565b61143a565b6103fd610788366004614ed4565b611516565b34801561079957600080fd5b506107ad6107a8366004614d98565b61159c565b60405163ffffffff909116815260200161042b565b3480156107ce57600080fd5b506104e76107dd366004614d98565b6001600160a01b031660009081526007602052604090205490565b34801561080457600080fd5b506103fd6115be565b34801561081957600080fd5b50610449610828366004614c18565b6115d0565b6103fd61083b366004614f47565b61166a565b34801561084c57600080fd5b506104e761085b366004614d98565b611733565b34801561086c57600080fd5b506103fd611751565b34801561088157600080fd5b5061088a611769565b60405161042b9796959493929190614ff9565b3480156108a957600080fd5b506105257f000000000000000000000000000000000000000000000000000000000000000081565b3480156108dd57600080fd5b506104e76108ec36600461508f565b600260209081526000928352604080842090915290825290205481565b34801561091557600080fd5b506000546001600160a01b03166106bb565b34801561093357600080fd5b506104e76109423660046150c2565b6117f2565b34801561095357600080fd5b5061095c611859565b60405165ffffffffffff909116815260200161042b565b34801561097f57600080fd5b506104e7611864565b34801561099457600080fd5b506004546106bb906001600160a01b031681565b3480156109b457600080fd5b5061044961186f565b3480156109c957600080fd5b506104e76109d8366004614d98565b61187e565b3480156109e957600080fd5b5061041f6109f8366004614e22565b6006602090815260009384526040808520845180860184018051928152908401958401959095209452929052825290205460ff1681565b348015610a3b57600080fd5b50610449610a4a366004614c18565b611900565b348015610a5b57600080fd5b5061041f610a6a366004614c48565b611a0f565b348015610a7b57600080fd5b5061056c610a8a3660046150db565b611a8a565b348015610a9b57600080fd5b506103fd610aaa366004614d46565b611b19565b348015610abb57600080fd5b5061041f610aca366004614c48565b611ba2565b348015610adb57600080fd5b506106bb7f000000000000000000000000000000000000000000000000000000000000000081565b348015610b0f57600080fd5b506103fd610b1e366004614d98565b611bb0565b348015610b2f57600080fd5b506103fd610b3e3660046151a5565b611c0c565b348015610b4f57600080fd5b506104e761271081565b348015610b6557600080fd5b506103fd610b743660046151ff565b611d39565b6103fd610b87366004614af8565b611dce565b348015610b9857600080fd5b506103fd610ba736600461526d565b611fe4565b348015610bb857600080fd5b506104e7610bc73660046152db565b612148565b348015610bd857600080fd5b506103fd610be7366004615314565b612173565b348015610bf857600080fd5b50610525600181565b348015610c0d57600080fd5b506103fd610c1c366004615350565b6121dd565b348015610c2d57600080fd5b506103fd610c3c366004614d46565b6122fc565b348015610c4d57600080fd5b50610c61610c5c366004615418565b612356565b60408051825163ffffffff1681526020928301516001600160e01b0316928101929092520161042b565b348015610c9757600080fd5b506103fd610ca6366004614d98565b6123da565b348015610cb757600080fd5b50610449610cc636600461544f565b612450565b348015610cd757600080fd5b50306106bb565b337f00000000000000000000000000000000000000000000000000000000000000006001600160a01b031614610d5b5760405162461bcd60e51b815260206004820152601e60248201527f4c7a4170703a20696e76616c696420656e64706f696e742063616c6c6572000060448201526064015b60405180910390fd5b61ffff861660009081526001602052604081208054610d799061549c565b80601f0160208091040260200160405190810160405280929190818152602001828054610da59061549c565b8015610df25780601f10610dc757610100808354040283529160200191610df2565b820191906000526020600020905b815481529060010190602001808311610dd557829003601f168201915b50505050509050805186869050148015610e0d575060008151115b8015610e35575080516020820120604051610e2b90889088906154d0565b6040518091039020145b610e905760405162461bcd60e51b815260206004820152602660248201527f4c7a4170703a20696e76616c696420736f757263652073656e64696e6720636f6044820152651b9d1c9858dd60d21b6064820152608401610d52565b610f068787878080601f01602080910402602001604051908101604052809392919081815260200183838082843760009201919091525050604080516020601f8a018190048102820181019092528881528a93509150889088908190840183828082843760009201919091525061251992505050565b50505050505050565b60006001600160e01b03198216631f7ecdf760e01b1480610f4057506301ffc9a760e01b6001600160e01b03198316145b92915050565b6060600a8054610f559061549c565b80601f0160208091040260200160405190810160405280929190818152602001828054610f819061549c565b8015610fce5780601f10610fa357610100808354040283529160200191610fce565b820191906000526020600020905b815481529060010190602001808311610fb157829003601f168201915b5050505050905090565b610fe0612592565b6040516307e0db1760e01b815261ffff821660048201527f00000000000000000000000000000000000000000000000000000000000000006001600160a01b0316906307e0db17906024015b600060405180830381600087803b15801561104657600080fd5b505af115801561105a573d6000803e3d6000fd5b5050505050565b60003361106f8185856125ec565b5060019392505050565b611081612592565b61ffff909116600090815260036020526040902055565b6110a0612592565b6040516310ddb13760e01b815261ffff821660048201527f00000000000000000000000000000000000000000000000000000000000000006001600160a01b0316906310ddb1379060240161102c565b6000336110fe858285612710565b61110985858561278a565b506001949350505050565b600061111e61293b565b905090565b6000806111698888888888888080601f016020809104026020016040519081016040528093929190818152602001838380828437600092019190915250612a6692505050565b91509150965096945050505050565b60003361106f81858561118b8383612148565b61119591906154f6565b6125ec565b60006111a4611859565b65ffffffffffff1682106111f65760405162461bcd60e51b815260206004820152601960248201527804552433230566f7465733a20667574757265206c6f6f6b757603c1b6044820152606401610d52565b6001600160a01b03831660009081526011602052604090206112189083612b5a565b9392505050565b61ffff8316600090815260016020526040812080548291906112409061549c565b80601f016020809104026020016040519081016040528092919081815260200182805461126c9061549c565b80156112b95780601f1061128e576101008083540402835291602001916112b9565b820191906000526020600020905b81548152906001019060200180831161129c57829003601f168201915b5050505050905083836040516112d09291906154d0565b60405180910390208180519060200120149150509392505050565b6112f3612592565b6112fb612c43565b611303612c9c565b61130d6001601455565b565b611317612592565b6040516342d65a8d60e01b81526001600160a01b037f000000000000000000000000000000000000000000000000000000000000000016906342d65a8d9061136790869086908690600401615532565b600060405180830381600087803b15801561138157600080fd5b505af1158015610f06573d6000803e3d6000fd5b6060436113a0611859565b65ffffffffffff16146113f55760405162461bcd60e51b815260206004820152601d60248201527f4552433230566f7465733a2062726f6b656e20636c6f636b206d6f64650000006044820152606401610d52565b5060408051808201909152601d81527f6d6f64653d626c6f636b6e756d6265722666726f6d3d64656661756c74000000602082015290565b6114373382612cee565b50565b3330146114985760405162461bcd60e51b815260206004820152602660248201527f4e6f6e626c6f636b696e674c7a4170703a2063616c6c6572206d7573742062656044820152650204c7a4170760d41b6064820152608401610d52565b61150e8686868080601f01602080910402602001604051908101604052809392919081815260200183838082843760009201919091525050604080516020601f890181900481028201810190925287815289935091508790879081908401838280828437600092019190915250612d6892505050565b505050505050565b61151e612def565b611526612c43565b6115918585858561153a6020870187614d98565b61154a6040880160208901614d98565b6115576040890189615550565b8080601f016020809104026020016040519081016040528093929190818152602001838380828437600092019190915250612e3592505050565b5061105a6001601455565b6001600160a01b038116600090815260116020526040812054610f4090612f1d565b6115c6612592565b61130d6000612f86565b600160205260009081526040902080546115e99061549c565b80601f01602080910402602001604051908101604052809291908181526020018280546116159061549c565b80156116625780601f1061163757610100808354040283529160200191611662565b820191906000526020600020905b81548152906001019060200180831161164557829003601f168201915b505050505081565b611672612def565b61167a612c43565b61171e8888888888888080601f0160208091040260200160405190810160405280939291908181526020018383808284376000920191909152508a92506116c79150506020890189614d98565b6116d760408a0160208b01614d98565b6116e460408b018b615550565b8080601f016020809104026020016040519081016040528093929190818152602001838380828437600092019190915250612fd692505050565b506117296001601455565b5050505050505050565b6001600160a01b0381166000908152600e6020526040812054610f40565b611759612592565b611761612c43565b6113036130d2565b60006060808280808361179d7f0000000000000000000000000000000000000000000000000000000000000000600c61310f565b6117c87f0000000000000000000000000000000000000000000000000000000000000000600d61310f565b60408051600080825260208201909252600f60f81b9b939a50919850469750309650945092509050565b60006117fc611859565b65ffffffffffff16821061184e5760405162461bcd60e51b815260206004820152601960248201527804552433230566f7465733a20667574757265206c6f6f6b757603c1b6044820152606401610d52565b610f40601283612b5a565b600061111e436131ba565b600061111e60095490565b6060600b8054610f559061549c565b6001600160a01b03811660009081526011602052604081205480156118ed576001600160a01b0383166000908152601160205260409020805460001983019081106118cb576118cb615596565b60009182526020909120015464010000000090046001600160e01b03166118f0565b60005b6001600160e01b03169392505050565b61ffff81166000908152600160205260408120805460609291906119239061549c565b80601f016020809104026020016040519081016040528092919081815260200182805461194f9061549c565b801561199c5780601f106119715761010080835404028352916020019161199c565b820191906000526020600020905b81548152906001019060200180831161197f57829003601f168201915b5050505050905080516000036119f45760405162461bcd60e51b815260206004820152601d60248201527f4c7a4170703a206e6f20747275737465642070617468207265636f72640000006044820152606401610d52565b611218600060148351611a0791906155ac565b839190613221565b60003381611a1d8286612148565b905083811015611a7d5760405162461bcd60e51b815260206004820152602560248201527f45524332303a2064656372656173656420616c6c6f77616e63652062656c6f77604482015264207a65726f60d81b6064820152608401610d52565b61110982868684036125ec565b600080611b078b8b8b8b8b8080601f01602080910402602001604051908101604052809392919081815260200183838082843760009201919091525050604080516020601f8d018190048102820181019092528b81528e93508d9250908c908c908190840183828082843760009201919091525061332e92505050565b91509150995099975050505050505050565b611b21612592565b818130604051602001611b36939291906155bf565b60408051601f1981840301815291815261ffff8516600090815260016020522090611b61908261562b565b507f8c0400cfe2d1199b1a725c78960bcc2a344d869b80590d0f2bd005db15a572ce838383604051611b9593929190615532565b60405180910390a1505050565b60003361106f81858561278a565b611bb8612592565b600480546001600160a01b0319166001600160a01b0383169081179091556040519081527f5db758e995a17ec1ad84bdef7e8c3293a0bd6179bcce400dff5d4c3d87db726b9060200160405180910390a150565b83421115611c5c5760405162461bcd60e51b815260206004820152601d60248201527f4552433230566f7465733a207369676e617475726520657870697265640000006044820152606401610d52565b604080517fe48329057bfd03d55e49b547132e39cffd9c1820ad7b9d4c5307691425d15adf60208201526001600160a01b038816918101919091526060810186905260808101859052600090611cd690611cce9060a001604051602081830303815290604052805190602001206133e9565b858585613416565b9050611ce18161343e565b8614611d2f5760405162461bcd60e51b815260206004820152601960248201527f4552433230566f7465733a20696e76616c6964206e6f6e6365000000000000006044820152606401610d52565b610f068188612cee565b611d41612592565b6040516332fb62e760e21b81526001600160a01b037f0000000000000000000000000000000000000000000000000000000000000000169063cbed8b9c90611d9590889088908890889088906004016156ea565b600060405180830381600087803b158015611daf57600080fd5b505af1158015611dc3573d6000803e3d6000fd5b505050505050505050565b61ffff86166000908152600560205260408082209051611df190889088906154d0565b90815260408051602092819003830190206001600160401b03871660009081529252902054905080611e715760405162461bcd60e51b815260206004820152602360248201527f4e6f6e626c6f636b696e674c7a4170703a206e6f2073746f726564206d65737360448201526261676560e81b6064820152608401610d52565b808383604051611e829291906154d0565b604051809103902014611ee15760405162461bcd60e51b815260206004820152602160248201527f4e6f6e626c6f636b696e674c7a4170703a20696e76616c6964207061796c6f616044820152601960fa1b6064820152608401610d52565b61ffff87166000908152600560205260408082209051611f0490899089906154d0565b90815260408051602092819003830181206001600160401b038916600090815290845282902093909355601f88018290048202830182019052868252611f9c918991899089908190840183828082843760009201919091525050604080516020601f8a018190048102820181019092528881528a935091508890889081908401838280828437600092019190915250612d6892505050565b7fc264d91f3adc5588250e1551f547752ca0cfa8f6b530d243b9f9f4cab10ea8e58787878785604051611fd3959493929190615723565b60405180910390a150505050505050565b834211156120345760405162461bcd60e51b815260206004820152601d60248201527f45524332305065726d69743a206578706972656420646561646c696e650000006044820152606401610d52565b60007f6e71edae12b1b97f4d1f60370fef10105fa2faae0126114a169c64845d6126c98888886120638c61343e565b6040805160208101969096526001600160a01b0394851690860152929091166060840152608083015260a082015260c0810186905260e00160405160208183030381529060405280519060200120905060006120be826133e9565b905060006120ce82878787613416565b9050896001600160a01b0316816001600160a01b0316146121315760405162461bcd60e51b815260206004820152601e60248201527f45524332305065726d69743a20696e76616c6964207369676e617475726500006044820152606401610d52565b61213c8a8a8a6125ec565b50505050505050505050565b6001600160a01b03918216600090815260086020908152604080832093909416825291909152205490565b61217b612592565b61ffff83811660008181526002602090815260408083209487168084529482529182902085905581519283528201929092529081018290527f9d5c7c0b934da8fefa9c7760c98383778a12dfbfc0c3b3106518f43fb9508ac090606001611b95565b33301461222c5760405162461bcd60e51b815260206004820152601f60248201527f4f4654436f72653a2063616c6c6572206d757374206265204f4654436f7265006044820152606401610d52565b612237308686613466565b9350846001600160a01b03168a61ffff167fbf551ec93859b170f9b2141bd9298bf3f64322c6f7beb2543a0cb669834118bf8660405161227991815260200190565b60405180910390a3604051633fe79aed60e11b81526001600160a01b03861690637fcf35da9083906122bd908e908e908e908e908e908d908d908d9060040161575e565b600060405180830381600088803b1580156122d757600080fd5b5087f11580156122eb573d6000803e3d6000fd5b505050505050505050505050505050565b612304612592565b61ffff831660009081526001602052604090206123228284836157b9565b507ffa41487ad5d6728f0b19276fa1eddc16558578f5109fc39d2dc33c3230470dab838383604051611b9593929190615532565b60408051808201909152600080825260208201526001600160a01b0383166000908152601160205260409020805463ffffffff841690811061239a5761239a615596565b60009182526020918290206040805180820190915291015463ffffffff8116825264010000000090046001600160e01b0316918101919091529392505050565b6123e2612592565b6001600160a01b0381166124475760405162461bcd60e51b815260206004820152602660248201527f4f776e61626c653a206e6577206f776e657220697320746865207a65726f206160448201526564647265737360d01b6064820152608401610d52565b61143781612f86565b604051633d7b2f6f60e21b815261ffff808616600483015284166024820152306044820152606481018290526060907f00000000000000000000000000000000000000000000000000000000000000006001600160a01b03169063f5ecbdbc90608401600060405180830381865afa1580156124d0573d6000803e3d6000fd5b505050506040513d6000823e601f3d908101601f191682016040526124f89190810190615878565b95945050505050565b600061121882846154f6565b600061121882846155ac565b60008061257c5a60966366ad5c8a60e01b8989898960405160240161254194939291906158e5565b60408051601f198184030181529190526020810180516001600160e01b03166001600160e01b031990931692909217909152309291906134b8565b915091508161150e5761150e8686868685613544565b6000546001600160a01b0316331461130d5760405162461bcd60e51b815260206004820181905260248201527f4f776e61626c653a2063616c6c6572206973206e6f7420746865206f776e65726044820152606401610d52565b6001600160a01b03831661264e5760405162461bcd60e51b8152602060048201526024808201527f45524332303a20617070726f76652066726f6d20746865207a65726f206164646044820152637265737360e01b6064820152608401610d52565b6001600160a01b0382166126af5760405162461bcd60e51b815260206004820152602260248201527f45524332303a20617070726f766520746f20746865207a65726f206164647265604482015261737360f01b6064820152608401610d52565b6001600160a01b0383811660008181526008602090815260408083209487168084529482529182902085905590518481527f8c5be1e5ebec7d5bd14f71427d1e84f3dd0314c0f7b2291e5b200ac8c7c3b925910160405180910390a3505050565b600061271c8484612148565b9050600019811461278457818110156127775760405162461bcd60e51b815260206004820152601d60248201527f45524332303a20696e73756666696369656e7420616c6c6f77616e63650000006044820152606401610d52565b61278484848484036125ec565b50505050565b6001600160a01b0383166127ee5760405162461bcd60e51b815260206004820152602560248201527f45524332303a207472616e736665722066726f6d20746865207a65726f206164604482015264647265737360d81b6064820152608401610d52565b6001600160a01b0382166128505760405162461bcd60e51b815260206004820152602360248201527f45524332303a207472616e7366657220746f20746865207a65726f206164647260448201526265737360e81b6064820152608401610d52565b6001600160a01b038316600090815260076020526040902054818110156128c85760405162461bcd60e51b815260206004820152602660248201527f45524332303a207472616e7366657220616d6f756e7420657863656564732062604482015265616c616e636560d01b6064820152608401610d52565b6001600160a01b0380851660008181526007602052604080822086860390559286168082529083902080548601905591517fddf252ad1be2c89b69c2b068fc378daa952ba7f163c4a11628f55a4df523b3ef906129289086815260200190565b60405180910390a36127848484846135e6565b6000306001600160a01b037f00000000000000000000000000000000000000000000000000000000000000001614801561299457507f000000000000000000000000000000000000000000000000000000000000000046145b156129be57507f000000000000000000000000000000000000000000000000000000000000000090565b61111e604080517f8b73c3c69bb8fe3d512ecc4cf759cc79239f7b179b0ffacaa9a75d522b39400f60208201527f0000000000000000000000000000000000000000000000000000000000000000918101919091527f000000000000000000000000000000000000000000000000000000000000000060608201524660808201523060a082015260009060c00160405160208183030381529060405280519060200120905090565b6000806000612ab487612a78886135f1565b6040805160006020820152602181019390935260c09190911b6001600160c01b0319166041830152805160298184030181526049909201905290565b60405163040a7bb160e41b81529091506001600160a01b037f000000000000000000000000000000000000000000000000000000000000000016906340a7bb1090612b0b908b90309086908b908b90600401615923565b6040805180830381865afa158015612b27573d6000803e3d6000fd5b505050506040513d601f19601f82011682018060405250810190612b4b9190615977565b92509250509550959350505050565b815460009081816005811115612bb4576000612b7584613677565b612b7f90856155ac565b600088815260209020909150869082015463ffffffff161115612ba457809150612bb2565b612baf8160016154f6565b92505b505b80821015612c01576000612bc8838361375f565b600088815260209020909150869082015463ffffffff161115612bed57809150612bfb565b612bf88160016154f6565b92505b50612bb4565b8015612c2d576000868152602090208101600019015464010000000090046001600160e01b0316612c30565b60005b6001600160e01b03169695505050505050565b600260145403612c955760405162461bcd60e51b815260206004820152601f60248201527f5265656e7472616e637947756172643a207265656e7472616e742063616c6c006044820152606401610d52565b6002601455565b612ca461377a565b6013805460ff191690557f5db9ee0a495bf2e6ff9c91a7834c1ba4fdd244a5e8aa4e537bd38aeae4b073aa335b6040516001600160a01b03909116815260200160405180910390a1565b6001600160a01b03828116600081815260106020818152604080842080546007845282862054949093528787166001600160a01b03198416811790915590519190951694919391928592917f3134e8a2e6d97e929a7e54011ea5485d7d196dd5f0ba4d4ef95803e8e3fc257f9190a46127848284836137c3565b6000612d748282613900565b905060ff8116612d8f57612d8a8585858561395c565b61105a565b60001960ff821601612da757612d8a858585856139ec565b60405162461bcd60e51b815260206004820152601c60248201527f4f4654436f72653a20756e6b6e6f776e207061636b65742074797065000000006044820152606401610d52565b60135460ff161561130d5760405162461bcd60e51b815260206004820152601060248201526f14185d5cd8589b194e881c185d5cd95960821b6044820152606401610d52565b6000612e4387828481613bfa565b612e4c85613ccf565b509050612e5b88888884613d0f565b905060008111612ea95760405162461bcd60e51b815260206004820152601960248201527813d19510dbdc994e88185b5bdd5b9d081d1bdbc81cdb585b1b603a1b6044820152606401610d52565b6000612eb887612a78846135f1565b9050612ec8888287878734613d41565b86896001600160a01b03168961ffff167fd81fc9b8523134ed613870ed029d6170cbb73aa6a6bc311b9a642689fb9df59a85604051612f0991815260200190565b60405180910390a450979650505050505050565b600063ffffffff821115612f825760405162461bcd60e51b815260206004820152602660248201527f53616665436173743a2076616c756520646f65736e27742066697420696e203360448201526532206269747360d01b6064820152608401610d52565b5090565b600080546001600160a01b038381166001600160a01b0319831681178455604051919092169283917f8be0079c531659141344cd1fd0a4f28419497f9722a3daafe3b4186f6b6457e09190a35050565b6000612fee896001846001600160401b038916613bfa565b612ff787613ccf565b5090506130068a8a8a84613d0f565b9050600081116130545760405162461bcd60e51b815260206004820152601960248201527813d19510dbdc994e88185b5bdd5b9d081d1bdbc81cdb585b1b603a1b6044820152606401610d52565b600061306b338a613064856135f1565b8a8a613ee6565b905061307b8a8287878734613d41565b888b6001600160a01b03168b61ffff167fd81fc9b8523134ed613870ed029d6170cbb73aa6a6bc311b9a642689fb9df59a856040516130bc91815260200190565b60405180910390a4509998505050505050505050565b6130da612def565b6013805460ff191660011790557f62e78cea01bee320cd4e420270b5ea74000d11b0c9f74754ebdbfc544b05a258612cd13390565b606060ff83146131295761312283613f27565b9050610f40565b8180546131359061549c565b80601f01602080910402602001604051908101604052809291908181526020018280546131619061549c565b80156131ae5780601f10613183576101008083540402835291602001916131ae565b820191906000526020600020905b81548152906001019060200180831161319157829003601f168201915b50505050509050610f40565b600065ffffffffffff821115612f825760405162461bcd60e51b815260206004820152602660248201527f53616665436173743a2076616c756520646f65736e27742066697420696e203460448201526538206269747360d01b6064820152608401610d52565b60608161322f81601f6154f6565b101561326e5760405162461bcd60e51b815260206004820152600e60248201526d736c6963655f6f766572666c6f7760901b6044820152606401610d52565b61327882846154f6565b845110156132bc5760405162461bcd60e51b8152602060048201526011602482015270736c6963655f6f75744f66426f756e647360781b6044820152606401610d52565b6060821580156132db5760405191506000825260208201604052613325565b6040519150601f8416801560200281840101858101878315602002848b0101015b818310156133145780518352602092830192016132fc565b5050858452601f01601f1916604052505b50949350505050565b6000806000613341338a6130648b6135f1565b60405163040a7bb160e41b81529091506001600160a01b037f000000000000000000000000000000000000000000000000000000000000000016906340a7bb1090613398908d90309086908b908b90600401615923565b6040805180830381865afa1580156133b4573d6000803e3d6000fd5b505050506040513d601f19601f820116820180604052508101906133d89190615977565b925092505097509795505050505050565b6000610f406133f661293b565b8360405161190160f01b8152600281019290925260228201526042902090565b600080600061342787878787613f66565b9150915061343481614027565b5095945050505050565b6001600160a01b0381166000908152600e602052604090208054600181018255905b50919050565b600033306001600160a01b038616148015906134945750806001600160a01b0316856001600160a01b031614155b156134a4576134a4858285612710565b6134af85858561278a565b50909392505050565b6000606060008060008661ffff166001600160401b038111156134dd576134dd614db5565b6040519080825280601f01601f191660200182016040528015613507576020820181803683370190505b50905060008087516020890160008d8df191503d925086831115613529578692505b828152826000602083013e9093509150505b94509492505050565b8180519060200120600560008761ffff1661ffff16815260200190815260200160002085604051613575919061599b565b9081526040805191829003602090810183206001600160401b0388166000908152915220919091557fe183f33de2837795525b4792ca4cd60535bd77c53b7e7030060bfcf5734d6b0c906135d290879087908790879087906159b7565b60405180910390a15050505050565b505050565b6135e1838383614171565b60008061361e7f000000000000000000000000000000000000000000000000000000000000000084615a1f565b90506001600160401b03811115610f405760405162461bcd60e51b815260206004820152601a60248201527f4f4654436f72653a20616d6f756e745344206f766572666c6f770000000000006044820152606401610d52565b60008160000361368957506000919050565b60006001613696846141a3565b901c6001901b905060018184816136af576136af615a09565b048201901c905060018184816136c7576136c7615a09565b048201901c905060018184816136df576136df615a09565b048201901c905060018184816136f7576136f7615a09565b048201901c9050600181848161370f5761370f615a09565b048201901c9050600181848161372757613727615a09565b048201901c9050600181848161373f5761373f615a09565b048201901c90506112188182858161375957613759615a09565b04614237565b600061376e6002848418615a1f565b611218908484166154f6565b60135460ff1661130d5760405162461bcd60e51b815260206004820152601460248201527314185d5cd8589b194e881b9bdd081c185d5cd95960621b6044820152606401610d52565b816001600160a01b0316836001600160a01b0316141580156137e55750600081115b156135e1576001600160a01b03831615613873576001600160a01b038316600090815260116020526040812081906138209061250d8561424d565b91509150846001600160a01b03167fdec2bacdd2f05b59de34da9b523dff8be42e5e38e818c82fdb0bae774387a7248383604051613868929190918252602082015260400190565b60405180910390a250505b6001600160a01b038216156135e1576001600160a01b038216600090815260116020526040812081906138a9906125018561424d565b91509150836001600160a01b03167fdec2bacdd2f05b59de34da9b523dff8be42e5e38e818c82fdb0bae774387a72483836040516138f1929190918252602082015260400190565b60405180910390a25050505050565b600061390d8260016154f6565b835110156139535760405162461bcd60e51b8152602060048201526013602482015272746f55696e74385f6f75744f66426f756e647360681b6044820152606401610d52565b50016001015190565b600080613968836143c2565b90925090506001600160a01b0382166139815761dead91505b600061398c82614447565b905061399987848361447c565b9050826001600160a01b03168761ffff167fbf551ec93859b170f9b2141bd9298bf3f64322c6f7beb2543a0cb669834118bf836040516139db91815260200190565b60405180910390a350505050505050565b60008060008060006139fd8661448f565b945094509450945094506000600660008b61ffff1661ffff16815260200190815260200160002089604051613a32919061599b565b90815260408051602092819003830190206001600160401b038b166000908152925281205460ff169150613a6585614447565b905081613ad357613a778b308361447c565b61ffff8c16600090815260066020526040908190209051919250600191613a9f908d9061599b565b90815260408051602092819003830190206001600160401b038d16600090815292529020805460ff19169115159190911790555b6001600160a01b0386163b613b2a576040516001600160a01b03871681527f9aedf5fdba8716db3b6705ca00150643309995d4f818a249ed6dde6677e7792d9060200160405180910390a150505050505050612784565b8a8a8a8a8a8a868a60008a613b48578b6001600160401b0316613b4a565b5a5b9050600080613b7c5a609663eaffd49a60e01b8e8e8e8d8d8d8d8d604051602401612541989796959493929190615a33565b915091508115613bd5578751602089012060405161ffff8d16907fb8890edbfc1c74692f527444645f95489c3703cc2df42e4a366f5d06fa6cd88490613bc7908e908e908690615aa7565b60405180910390a250613be2565b613be28b8b8b8b85613544565b50505050505050505050505050505050505050505050565b6000613c0583614546565b61ffff80871660009081526002602090815260408083209389168352929052205490915080613c765760405162461bcd60e51b815260206004820152601a60248201527f4c7a4170703a206d696e4761734c696d6974206e6f74207365740000000000006044820152606401610d52565b613c8083826154f6565b82101561150e5760405162461bcd60e51b815260206004820152601b60248201527f4c7a4170703a20676173206c696d697420697320746f6f206c6f7700000000006044820152606401610d52565b600080613cfc7f000000000000000000000000000000000000000000000000000000000000000084615ad5565b9050613d0881846155ac565b9150915091565b6000336001600160a01b0386168114613d2d57613d2d868285612710565b613d3786846145a2565b5090949350505050565b61ffff861660009081526001602052604081208054613d5f9061549c565b80601f0160208091040260200160405190810160405280929190818152602001828054613d8b9061549c565b8015613dd85780601f10613dad57610100808354040283529160200191613dd8565b820191906000526020600020905b815481529060010190602001808311613dbb57829003601f168201915b505050505090508051600003613e495760405162461bcd60e51b815260206004820152603060248201527f4c7a4170703a2064657374696e6174696f6e20636861696e206973206e6f742060448201526f61207472757374656420736f7572636560801b6064820152608401610d52565b613e548787516145b0565b60405162c5803160e81b81526001600160a01b037f0000000000000000000000000000000000000000000000000000000000000000169063c5803100908490613eab908b9086908c908c908c908c90600401615ae9565b6000604051808303818588803b158015613ec457600080fd5b505af1158015613ed8573d6000803e3d6000fd5b505050505050505050505050565b6060600185856001600160a01b0389168587604051602001613f0d96959493929190615b50565b604051602081830303815290604052905095945050505050565b60606000613f3483614621565b604080516020808252818301909252919250600091906020820181803683375050509182525060208101929092525090565b6000807f7fffffffffffffffffffffffffffffff5d576e7357a4501ddfe92f46681b20a0831115613f9d575060009050600361353b565b6040805160008082526020820180845289905260ff881692820192909252606081018690526080810185905260019060a0016020604051602081039080840390855afa158015613ff1573d6000803e3d6000fd5b5050604051601f1901519150506001600160a01b03811661401a5760006001925092505061353b565b9660009650945050505050565b600081600481111561403b5761403b615bb1565b036140435750565b600181600481111561405757614057615bb1565b036140a45760405162461bcd60e51b815260206004820152601860248201527f45434453413a20696e76616c6964207369676e617475726500000000000000006044820152606401610d52565b60028160048111156140b8576140b8615bb1565b036141055760405162461bcd60e51b815260206004820152601f60248201527f45434453413a20696e76616c6964207369676e6174757265206c656e677468006044820152606401610d52565b600381600481111561411957614119615bb1565b036114375760405162461bcd60e51b815260206004820152602260248201527f45434453413a20696e76616c6964207369676e6174757265202773272076616c604482015261756560f01b6064820152608401610d52565b6001600160a01b038381166000908152601060205260408082205485841683529120546135e1929182169116836137c3565b600080608083901c156141b857608092831c92015b604083901c156141ca57604092831c92015b602083901c156141dc57602092831c92015b601083901c156141ee57601092831c92015b600883901c1561420057600892831c92015b600483901c1561421257600492831c92015b600283901c1561422457600292831c92015b600183901c15610f405760010192915050565b60008183106142465781611218565b5090919050565b8254600090819081811561429a5760008781526020902082016000190160408051808201909152905463ffffffff8116825264010000000090046001600160e01b031660208201526142af565b60408051808201909152600080825260208201525b905080602001516001600160e01b031693506142cf84868863ffffffff16565b92506000821180156142f957506142e4611859565b65ffffffffffff16816000015163ffffffff16145b1561433e5761430783614649565b60008881526020902083016000190180546001600160e01b03929092166401000000000263ffffffff9092169190911790556143b8565b866040518060400160405280614362614355611859565b65ffffffffffff16612f1d565b63ffffffff16815260200161437686614649565b6001600160e01b0390811690915282546001810184556000938452602093849020835194909301519091166401000000000263ffffffff909316929092179101555b5050935093915050565b600080806143d08482613900565b60ff161480156143e1575082516029145b6144285760405162461bcd60e51b815260206004820152601860248201527713d19510dbdc994e881a5b9d985b1a59081c185e5b1bd85960421b6044820152606401610d52565b61443383600d6146b2565b9150614440836021614717565b9050915091565b6000610f407f00000000000000000000000000000000000000000000000000000000000000006001600160401b038416615bc7565b60006144888383614774565b5092915050565b6000808060608160016144a28783613900565b60ff16146144ed5760405162461bcd60e51b815260206004820152601860248201527713d19510dbdc994e881a5b9d985b1a59081c185e5b1bd85960421b6044820152606401610d52565b6144f886600d6146b2565b9350614505866021614717565b925061451286602961477e565b945061451f866049614717565b905061453b605180885161453391906155ac565b889190613221565b915091939590929450565b600060228251101561459a5760405162461bcd60e51b815260206004820152601c60248201527f4c7a4170703a20696e76616c69642061646170746572506172616d73000000006044820152606401610d52565b506022015190565b6145ac82826147dc565b5050565b61ffff8216600090815260036020526040812054908190036145d157506127105b808211156135e15760405162461bcd60e51b815260206004820181905260248201527f4c7a4170703a207061796c6f61642073697a6520697320746f6f206c617267656044820152606401610d52565b600060ff8216601f811115610f4057604051632cd44ac360e21b815260040160405180910390fd5b60006001600160e01b03821115612f825760405162461bcd60e51b815260206004820152602760248201527f53616665436173743a2076616c756520646f65736e27742066697420696e20326044820152663234206269747360c81b6064820152608401610d52565b60006146bf8260146154f6565b835110156147075760405162461bcd60e51b8152602060048201526015602482015274746f416464726573735f6f75744f66426f756e647360581b6044820152606401610d52565b500160200151600160601b900490565b60006147248260086154f6565b8351101561476b5760405162461bcd60e51b8152602060048201526014602482015273746f55696e7436345f6f75744f66426f756e647360601b6044820152606401610d52565b50016008015190565b6145ac82826147f4565b600061478b8260206154f6565b835110156147d35760405162461bcd60e51b8152602060048201526015602482015274746f427974657333325f6f75744f66426f756e647360581b6044820152606401610d52565b50016020015190565b6147e6828261487e565b612784601261250d8361424d565b6147fe82826149b9565b6009546001600160e01b0310156148705760405162461bcd60e51b815260206004820152603060248201527f4552433230566f7465733a20746f74616c20737570706c79207269736b73206f60448201526f766572666c6f77696e6720766f74657360801b6064820152608401610d52565b61278460126125018361424d565b6001600160a01b0382166148de5760405162461bcd60e51b815260206004820152602160248201527f45524332303a206275726e2066726f6d20746865207a65726f206164647265736044820152607360f81b6064820152608401610d52565b6001600160a01b038216600090815260076020526040902054818110156149525760405162461bcd60e51b815260206004820152602260248201527f45524332303a206275726e20616d6f756e7420657863656564732062616c616e604482015261636560f01b6064820152608401610d52565b6001600160a01b03831660008181526007602090815260408083208686039055600980548790039055518581529192917fddf252ad1be2c89b69c2b068fc378daa952ba7f163c4a11628f55a4df523b3ef910160405180910390a36135e1836000846135e6565b6001600160a01b038216614a0f5760405162461bcd60e51b815260206004820152601f60248201527f45524332303a206d696e7420746f20746865207a65726f2061646472657373006044820152606401610d52565b8060096000828254614a2191906154f6565b90915550506001600160a01b0382166000818152600760209081526040808320805486019055518481527fddf252ad1be2c89b69c2b068fc378daa952ba7f163c4a11628f55a4df523b3ef910160405180910390a36145ac600083836135e6565b803561ffff81168114614a9457600080fd5b919050565b60008083601f840112614aab57600080fd5b5081356001600160401b03811115614ac257600080fd5b602083019150836020828501011115614ada57600080fd5b9250929050565b80356001600160401b0381168114614a9457600080fd5b60008060008060008060808789031215614b1157600080fd5b614b1a87614a82565b955060208701356001600160401b0380821115614b3657600080fd5b614b428a838b01614a99565b9097509550859150614b5660408a01614ae1565b94506060890135915080821115614b6c57600080fd5b50614b7989828a01614a99565b979a9699509497509295939492505050565b600060208284031215614b9d57600080fd5b81356001600160e01b03198116811461121857600080fd5b60005b83811015614bd0578181015183820152602001614bb8565b50506000910152565b60008151808452614bf1816020860160208601614bb5565b601f01601f19169290920160200192915050565b6020815260006112186020830184614bd9565b600060208284031215614c2a57600080fd5b61121882614a82565b6001600160a01b038116811461143757600080fd5b60008060408385031215614c5b57600080fd5b8235614c6681614c33565b946020939093013593505050565b60008060408385031215614c8757600080fd5b614c6683614a82565b600080600060608486031215614ca557600080fd5b8335614cb081614c33565b92506020840135614cc081614c33565b929592945050506040919091013590565b80358015158114614a9457600080fd5b60008060008060008060a08789031215614cfa57600080fd5b614d0387614a82565b95506020870135945060408701359350614d1f60608801614cd1565b925060808701356001600160401b03811115614d3a57600080fd5b614b7989828a01614a99565b600080600060408486031215614d5b57600080fd5b614d6484614a82565b925060208401356001600160401b03811115614d7f57600080fd5b614d8b86828701614a99565b9497909650939450505050565b600060208284031215614daa57600080fd5b813561121881614c33565b634e487b7160e01b600052604160045260246000fd5b604051601f8201601f191681016001600160401b0381118282101715614df357614df3614db5565b604052919050565b60006001600160401b03821115614e1457614e14614db5565b50601f01601f191660200190565b600080600060608486031215614e3757600080fd5b614e4084614a82565b925060208401356001600160401b03811115614e5b57600080fd5b8401601f81018613614e6c57600080fd5b8035614e7f614e7a82614dfb565b614dcb565b818152876020838501011115614e9457600080fd5b81602084016020830137600060208383010152809450505050614eb960408501614ae1565b90509250925092565b60006060828403121561346057600080fd5b600080600080600060a08688031215614eec57600080fd5b8535614ef781614c33565b9450614f0560208701614a82565b9350604086013592506060860135915060808601356001600160401b03811115614f2e57600080fd5b614f3a88828901614ec2565b9150509295509295909350565b60008060008060008060008060e0898b031215614f6357600080fd5b8835614f6e81614c33565b9750614f7c60208a01614a82565b9650604089013595506060890135945060808901356001600160401b0380821115614fa657600080fd5b614fb28c838d01614a99565b9096509450849150614fc660a08c01614ae1565b935060c08b0135915080821115614fdc57600080fd5b50614fe98b828c01614ec2565b9150509295985092959890939650565b60ff60f81b881681526000602060e08184015261501960e084018a614bd9565b838103604085015261502b818a614bd9565b606085018990526001600160a01b038816608086015260a0850187905284810360c0860152855180825283870192509083019060005b8181101561507d57835183529284019291840191600101615061565b50909c9b505050505050505050505050565b600080604083850312156150a257600080fd5b6150ab83614a82565b91506150b960208401614a82565b90509250929050565b6000602082840312156150d457600080fd5b5035919050565b600080600080600080600080600060e08a8c0312156150f957600080fd5b6151028a614a82565b985060208a0135975060408a0135965060608a01356001600160401b038082111561512c57600080fd5b6151388d838e01614a99565b909850965086915061514c60808d01614ae1565b955061515a60a08d01614cd1565b945060c08c013591508082111561517057600080fd5b5061517d8c828d01614a99565b915080935050809150509295985092959850929598565b803560ff81168114614a9457600080fd5b60008060008060008060c087890312156151be57600080fd5b86356151c981614c33565b955060208701359450604087013593506151e560608801615194565b92506080870135915060a087013590509295509295509295565b60008060008060006080868803121561521757600080fd5b61522086614a82565b945061522e60208701614a82565b93506040860135925060608601356001600160401b0381111561525057600080fd5b61525c88828901614a99565b969995985093965092949392505050565b600080600080600080600060e0888a03121561528857600080fd5b873561529381614c33565b965060208801356152a381614c33565b955060408801359450606088013593506152bf60808901615194565b925060a0880135915060c0880135905092959891949750929550565b600080604083850312156152ee57600080fd5b82356152f981614c33565b9150602083013561530981614c33565b809150509250929050565b60008060006060848603121561532957600080fd5b61533284614a82565b925061534060208501614a82565b9150604084013590509250925092565b6000806000806000806000806000806101008b8d03121561537057600080fd5b6153798b614a82565b995060208b01356001600160401b038082111561539557600080fd5b6153a18e838f01614a99565b909b5099508991506153b560408e01614ae1565b985060608d0135975060808d013591506153ce82614c33565b90955060a08c0135945060c08c013590808211156153eb57600080fd5b506153f88d828e01614a99565b9150809450508092505060e08b013590509295989b9194979a5092959850565b6000806040838503121561542b57600080fd5b823561543681614c33565b9150602083013563ffffffff8116811461530957600080fd5b6000806000806080858703121561546557600080fd5b61546e85614a82565b935061547c60208601614a82565b9250604085013561548c81614c33565b9396929550929360600135925050565b600181811c908216806154b057607f821691505b60208210810361346057634e487b7160e01b600052602260045260246000fd5b8183823760009101908152919050565b634e487b7160e01b600052601160045260246000fd5b80820180821115610f4057610f406154e0565b81835281816020850137506000828201602090810191909152601f909101601f19169091010190565b61ffff841681526040602082015260006124f8604083018486615509565b6000808335601e1984360301811261556757600080fd5b8301803591506001600160401b0382111561558157600080fd5b602001915036819003821315614ada57600080fd5b634e487b7160e01b600052603260045260246000fd5b81810381811115610f4057610f406154e0565b8284823760609190911b6bffffffffffffffffffffffff19169101908152601401919050565b601f8211156135e157600081815260208120601f850160051c8101602086101561560c5750805b601f850160051c820191505b8181101561150e57828155600101615618565b81516001600160401b0381111561564457615644614db5565b61565881615652845461549c565b846155e5565b602080601f83116001811461568d57600084156156755750858301515b600019600386901b1c1916600185901b17855561150e565b600085815260208120601f198616915b828110156156bc5788860151825594840194600190910190840161569d565b50858210156156da5787850151600019600388901b60f8161c191681555b5050505050600190811b01905550565b600061ffff808816835280871660208401525084604083015260806060830152615718608083018486615509565b979650505050505050565b61ffff86168152608060208201526000615741608083018688615509565b6001600160401b0394909416604083015250606001529392505050565b61ffff8916815260c06020820152600061577c60c08301898b615509565b6001600160401b038816604084015286606084015285608084015282810360a08401526157aa818587615509565b9b9a5050505050505050505050565b6001600160401b038311156157d0576157d0614db5565b6157e4836157de835461549c565b836155e5565b6000601f84116001811461581857600085156158005750838201355b600019600387901b1c1916600186901b17835561105a565b600083815260209020601f19861690835b828110156158495786850135825560209485019460019092019101615829565b50868210156158665760001960f88860031b161c19848701351681555b505060018560011b0183555050505050565b60006020828403121561588a57600080fd5b81516001600160401b038111156158a057600080fd5b8201601f810184136158b157600080fd5b80516158bf614e7a82614dfb565b8181528560208385010111156158d457600080fd5b6124f8826020830160208601614bb5565b61ffff851681526080602082015260006159026080830186614bd9565b6001600160401b038516604084015282810360608401526157188185614bd9565b61ffff861681526001600160a01b038516602082015260a06040820181905260009061595190830186614bd9565b8415156060840152828103608084015261596b8185614bd9565b98975050505050505050565b6000806040838503121561598a57600080fd5b505080516020909101519092909150565b600082516159ad818460208701614bb5565b9190910192915050565b61ffff8616815260a0602082015260006159d460a0830187614bd9565b6001600160401b038616604084015282810360608401526159f58186614bd9565b9050828103608084015261596b8185614bd9565b634e487b7160e01b600052601260045260246000fd5b600082615a2e57615a2e615a09565b500490565b600061010061ffff8b168352806020840152615a518184018b614bd9565b6001600160401b038a166040850152606084018990526001600160a01b038816608085015260a0840187905283810360c08501529050615a918186614bd9565b9150508260e08301529998505050505050505050565b606081526000615aba6060830186614bd9565b6001600160401b039490941660208301525060400152919050565b600082615ae457615ae4615a09565b500690565b61ffff8716815260c060208201526000615b0660c0830188614bd9565b8281036040840152615b188188614bd9565b6001600160a01b0387811660608601528616608085015283810360a08501529050615b438185614bd9565b9998505050505050505050565b60ff60f81b8760f81b16815285600182015260006001600160401b0360c01b808760c01b166021840152856029840152808560c01b166049840152508251615b9f816051850160208701614bb5565b91909101605101979650505050505050565b634e487b7160e01b600052602160045260246000fd5b8082028115828204841417610f4057610f406154e056fea26469706673582212208ade219fb3040f45d974be9c1cdd5426c1c3af34d7b71e76a3a4dc753b3ee34964736f6c63430008140033dec2bacdd2f05b59de34da9b523dff8be42e5e38e818c82fdb0bae774387a724",
    "linkReferences": {},
    "deployedLinkReferences": {}
}